{
  "contractName": "Tickets",
  "abi": [
    {
      "inputs": [],
      "stateMutability": "nonpayable",
      "type": "constructor"
    },
    {
      "inputs": [],
      "name": "TOTAL_TICKETS",
      "outputs": [
        {
          "internalType": "uint256",
          "name": "",
          "type": "uint256"
        }
      ],
      "stateMutability": "view",
      "type": "function",
      "constant": true
    },
    {
      "inputs": [],
      "name": "owner",
      "outputs": [
        {
          "internalType": "address",
          "name": "",
          "type": "address"
        }
      ],
      "stateMutability": "view",
      "type": "function",
      "constant": true
    },
    {
      "inputs": [
        {
          "internalType": "uint256",
          "name": "",
          "type": "uint256"
        }
      ],
      "name": "tickets",
      "outputs": [
        {
          "internalType": "uint256",
          "name": "id",
          "type": "uint256"
        },
        {
          "internalType": "uint256",
          "name": "price",
          "type": "uint256"
        },
        {
          "internalType": "address",
          "name": "owner",
          "type": "address"
        }
      ],
      "stateMutability": "view",
      "type": "function",
      "constant": true
    },
    {
      "inputs": [
        {
          "internalType": "uint256",
          "name": "ticket_id",
          "type": "uint256"
        }
      ],
      "name": "buyTicket",
      "outputs": [],
      "stateMutability": "payable",
      "type": "function",
      "payable": true
    }
  ],
  "bytecode": "0x6080604052336000806101000a81548173ffffffffffffffffffffffffffffffffffffffff021916908373ffffffffffffffffffffffffffffffffffffffff16021790555034801561005057600080fd5b5060005b600b81101561012a57600a8161006a9190610169565b662386f26fc1000061007c91906101c3565b600182600b81106100905761008f6101f7565b5b600302016001018190555080600182600b81106100b0576100af6101f7565b5b60030201600001819055506000600182600b81106100d1576100d06101f7565b5b6003020160020160006101000a81548173ffffffffffffffffffffffffffffffffffffffff021916908373ffffffffffffffffffffffffffffffffffffffff1602179055506001816101239190610226565b9050610054565b5061027c565b6000819050919050565b7f4e487b7100000000000000000000000000000000000000000000000000000000600052601160045260246000fd5b600061017482610130565b915061017f83610130565b9250817fffffffffffffffffffffffffffffffffffffffffffffffffffffffffffffffff04831182151516156101b8576101b761013a565b5b828202905092915050565b60006101ce82610130565b91506101d983610130565b9250828210156101ec576101eb61013a565b5b828203905092915050565b7f4e487b7100000000000000000000000000000000000000000000000000000000600052603260045260246000fd5b600061023182610130565b915061023c83610130565b9250827fffffffffffffffffffffffffffffffffffffffffffffffffffffffffffffffff038211156102715761027061013a565b5b828201905092915050565b61040b8061028b6000396000f3fe60806040526004361061003f5760003560e01c806350b447121461004457806367dd74ca146100835780638da5cb5b1461009f578063afbd1782146100ca575b600080fd5b34801561005057600080fd5b5061006b600480360381019061006691906102bc565b6100f5565b60405161007a93929190610339565b60405180910390f35b61009d600480360381019061009891906102bc565b610145565b005b3480156100ab57600080fd5b506100b4610258565b6040516100c19190610370565b60405180910390f35b3480156100d657600080fd5b506100df61027c565b6040516100ec919061038b565b60405180910390f35b600181600b811061010557600080fd5b600302016000915090508060000154908060010154908060020160009054906101000a900473ffffffffffffffffffffffffffffffffffffffff16905083565b600b81108015610156575060008110155b61015f57600080fd5b600073ffffffffffffffffffffffffffffffffffffffff16600182600b811061018b5761018a6103a6565b5b6003020160020160009054906101000a900473ffffffffffffffffffffffffffffffffffffffff1673ffffffffffffffffffffffffffffffffffffffff16146101d357600080fd5b600181600b81106101e7576101e66103a6565b5b60030201600101543410156101fb57600080fd5b33600182600b81106102105761020f6103a6565b5b6003020160020160006101000a81548173ffffffffffffffffffffffffffffffffffffffff021916908373ffffffffffffffffffffffffffffffffffffffff16021790555050565b60008054906101000a900473ffffffffffffffffffffffffffffffffffffffff1681565b600b81565b600080fd5b6000819050919050565b61029981610286565b81146102a457600080fd5b50565b6000813590506102b681610290565b92915050565b6000602082840312156102d2576102d1610281565b5b60006102e0848285016102a7565b91505092915050565b6102f281610286565b82525050565b600073ffffffffffffffffffffffffffffffffffffffff82169050919050565b6000610323826102f8565b9050919050565b61033381610318565b82525050565b600060608201905061034e60008301866102e9565b61035b60208301856102e9565b610368604083018461032a565b949350505050565b6000602082019050610385600083018461032a565b92915050565b60006020820190506103a060008301846102e9565b92915050565b7f4e487b7100000000000000000000000000000000000000000000000000000000600052603260045260246000fdfea2646970667358221220806c9b6002507b12e9afa7a6ba3ca9eda7fdb2c9a42a56c0c73a5d25178ec96c64736f6c634300080e0033",
  "immutableReferences": {},
  "source": "pragma solidity >= 0.4.22 <0.9.0;\r\n\r\n//uint constant TOTAL_TICKETS = 10;\r\n\r\ncontract Tickets{\r\n    \r\n    address public owner = msg.sender;\r\n\r\n    //Create Ticket Object\r\n    struct Ticket {\r\n        uint id;\r\n        uint price;\r\n        address owner;\r\n    }\r\n    uint constant public TOTAL_TICKETS = 11;\r\n\r\n    Ticket[TOTAL_TICKETS] public tickets;\r\n\r\n    constructor(){\r\n        //Create tickets\r\n        for(uint i = 0; i < TOTAL_TICKETS; i+= 1){\r\n            tickets[i].price = 1e16 - i*10; //.01 Ether\r\n            tickets[i].id = i;\r\n            tickets[i].owner = address(0x0);\r\n        }\r\n\r\n    }\r\n\r\n    //function for buying tickets\r\n    function buyTicket(uint ticket_id) external payable{\r\n        require(ticket_id < TOTAL_TICKETS && ticket_id >= 0);\r\n        require(tickets[ticket_id].owner == address(0x0));\r\n        require(msg.value >= tickets[ticket_id].price);\r\n        tickets[ticket_id].owner = msg.sender;\r\n    }\r\n\r\n    //function ticket_length() public {    }\r\n}",
  "sourcePath": "C:\\Users\\imani\\Documents\\GitHub\\Training\\blockchain\\tutorial_new\\contracts\\Tickets.sol",
  "compiler": {
    "name": "solc",
    "version": "0.8.14+commit.80d49f37.Emscripten.clang"
  },
  "schemaVersion": "3.4.7",
  "updatedAt": "2022-07-14T00:14:06.230Z",
  "networkType": "ethereum",
  "devdoc": {
    "kind": "dev",
    "methods": {},
    "version": 1
  },
  "userdoc": {
    "kind": "user",
    "methods": {},
    "version": 1
  }
}