{
  "contractName": "Tickets",
  "abi": [
    {
      "inputs": [],
      "stateMutability": "nonpayable",
      "type": "constructor"
    },
    {
      "inputs": [],
      "name": "owner",
      "outputs": [
        {
          "internalType": "address",
          "name": "",
          "type": "address"
        }
      ],
      "stateMutability": "view",
      "type": "function",
      "constant": true
    },
    {
      "inputs": [
        {
          "internalType": "uint256",
          "name": "",
          "type": "uint256"
        }
      ],
      "name": "tickets",
      "outputs": [
        {
          "internalType": "uint256",
          "name": "id",
          "type": "uint256"
        },
        {
          "internalType": "uint256",
          "name": "price",
          "type": "uint256"
        },
        {
          "internalType": "address",
          "name": "owner",
          "type": "address"
        }
      ],
      "stateMutability": "view",
      "type": "function",
      "constant": true
    },
    {
      "inputs": [
        {
          "internalType": "uint256",
          "name": "ticket_id",
          "type": "uint256"
        }
      ],
      "name": "buyTicket",
      "outputs": [],
      "stateMutability": "payable",
      "type": "function",
      "payable": true
    }
  ],
  "bytecode": "0x6080604052336000806101000a81548173ffffffffffffffffffffffffffffffffffffffff021916908373ffffffffffffffffffffffffffffffffffffffff16021790555034801561005057600080fd5b5060005b600a81101561012a57600a8161006a9190610169565b662386f26fc1000061007c91906101c3565b600182600a81106100905761008f6101f7565b5b600302016001018190555080600182600a81106100b0576100af6101f7565b5b60030201600001819055506000600182600a81106100d1576100d06101f7565b5b6003020160020160006101000a81548173ffffffffffffffffffffffffffffffffffffffff021916908373ffffffffffffffffffffffffffffffffffffffff1602179055506001816101239190610226565b9050610054565b5061027c565b6000819050919050565b7f4e487b7100000000000000000000000000000000000000000000000000000000600052601160045260246000fd5b600061017482610130565b915061017f83610130565b9250817fffffffffffffffffffffffffffffffffffffffffffffffffffffffffffffffff04831182151516156101b8576101b761013a565b5b828202905092915050565b60006101ce82610130565b91506101d983610130565b9250828210156101ec576101eb61013a565b5b828203905092915050565b7f4e487b7100000000000000000000000000000000000000000000000000000000600052603260045260246000fd5b600061023182610130565b915061023c83610130565b9250827fffffffffffffffffffffffffffffffffffffffffffffffffffffffffffffffff038211156102715761027061013a565b5b828201905092915050565b6103b58061028b6000396000f3fe6080604052600436106100345760003560e01c806350b447121461003957806367dd74ca146100785780638da5cb5b14610094575b600080fd5b34801561004557600080fd5b50610060600480360381019061005b9190610281565b6100bf565b60405161006f939291906102fe565b60405180910390f35b610092600480360381019061008d9190610281565b61010f565b005b3480156100a057600080fd5b506100a9610222565b6040516100b69190610335565b60405180910390f35b600181600a81106100cf57600080fd5b600302016000915090508060000154908060010154908060020160009054906101000a900473ffffffffffffffffffffffffffffffffffffffff16905083565b600a81108015610120575060008110155b61012957600080fd5b600073ffffffffffffffffffffffffffffffffffffffff16600182600a811061015557610154610350565b5b6003020160020160009054906101000a900473ffffffffffffffffffffffffffffffffffffffff1673ffffffffffffffffffffffffffffffffffffffff161461019d57600080fd5b600181600a81106101b1576101b0610350565b5b60030201600101543410156101c557600080fd5b33600182600a81106101da576101d9610350565b5b6003020160020160006101000a81548173ffffffffffffffffffffffffffffffffffffffff021916908373ffffffffffffffffffffffffffffffffffffffff16021790555050565b60008054906101000a900473ffffffffffffffffffffffffffffffffffffffff1681565b600080fd5b6000819050919050565b61025e8161024b565b811461026957600080fd5b50565b60008135905061027b81610255565b92915050565b60006020828403121561029757610296610246565b5b60006102a58482850161026c565b91505092915050565b6102b78161024b565b82525050565b600073ffffffffffffffffffffffffffffffffffffffff82169050919050565b60006102e8826102bd565b9050919050565b6102f8816102dd565b82525050565b600060608201905061031360008301866102ae565b61032060208301856102ae565b61032d60408301846102ef565b949350505050565b600060208201905061034a60008301846102ef565b92915050565b7f4e487b7100000000000000000000000000000000000000000000000000000000600052603260045260246000fdfea2646970667358221220ebacd6d304ea84eec5316d4ec797ba12cd695f4fe5b177d882d313895cfede9264736f6c634300080e0033",
  "immutableReferences": {},
  "source": "pragma solidity >= 0.4.22 <0.9.0;\r\n\r\nuint constant TOTAL_TICKETS = 10;\r\n\r\ncontract Tickets{\r\n    \r\n    address public owner = msg.sender;\r\n\r\n    //Create Ticket Object\r\n    struct Ticket {\r\n        uint id;\r\n        uint price;\r\n        address owner;\r\n    }\r\n\r\n    Ticket[TOTAL_TICKETS] public tickets;\r\n\r\n    constructor(){\r\n        //Create tickets\r\n        for(uint i = 0; i < TOTAL_TICKETS; i+= 1){\r\n            tickets[i].price = 1e16 - i*10; //.01 Ether\r\n            tickets[i].id = i;\r\n            tickets[i].owner = address(0x0);\r\n        }\r\n\r\n    }\r\n\r\n    //function for buying tickets\r\n    function buyTicket(uint ticket_id) external payable{\r\n        require(ticket_id < TOTAL_TICKETS && ticket_id >= 0);\r\n        require(tickets[ticket_id].owner == address(0x0));\r\n        require(msg.value >= tickets[ticket_id].price);\r\n        tickets[ticket_id].owner = msg.sender;\r\n    }\r\n\r\n}",
  "sourcePath": "C:\\Users\\imani\\Documents\\GitHub\\Training\\blockchain\\tutorial_new\\contracts\\Tickets.sol",
  "compiler": {
    "name": "solc",
    "version": "0.8.14+commit.80d49f37.Emscripten.clang"
  },
  "schemaVersion": "3.4.7",
  "updatedAt": "2022-06-30T19:22:55.849Z",
  "networkType": "ethereum",
  "devdoc": {
    "kind": "dev",
    "methods": {},
    "version": 1
  },
  "userdoc": {
    "kind": "user",
    "methods": {},
    "version": 1
  }
}