{
  "contractName": "Election",
  "abi": [
    {
      "inputs": [],
      "payable": false,
      "stateMutability": "nonpayable",
      "type": "constructor"
    },
    {
      "constant": true,
      "inputs": [
        {
          "internalType": "uint256",
          "name": "",
          "type": "uint256"
        }
      ],
      "name": "candidates",
      "outputs": [
        {
          "internalType": "uint256",
          "name": "id",
          "type": "uint256"
        },
        {
          "internalType": "string",
          "name": "name",
          "type": "string"
        },
        {
          "internalType": "uint256",
          "name": "voteCount",
          "type": "uint256"
        }
      ],
      "payable": false,
      "stateMutability": "view",
      "type": "function"
    },
    {
      "constant": true,
      "inputs": [],
      "name": "candidatesCount",
      "outputs": [
        {
          "internalType": "uint256",
          "name": "",
          "type": "uint256"
        }
      ],
      "payable": false,
      "stateMutability": "view",
      "type": "function"
    },
    {
      "constant": false,
      "inputs": [
        {
          "internalType": "uint256",
          "name": "choice",
          "type": "uint256"
        }
      ],
      "name": "Elect",
      "outputs": [],
      "payable": false,
      "stateMutability": "nonpayable",
      "type": "function"
    }
  ],
  "bytecode": "0x608060405234801561001057600080fd5b506100556040518060400160405280600781526020017f436869636b656e0000000000000000000000000000000000000000000000000081525061009e60201b60201c565b6100996040518060400160405280600581526020017f50697a7a6100000000000000000000000000000000000000000000000000000081525061009e60201b60201c565b6101bc565b600180600082825401925050819055506040518060600160405280600154815260200182815260200160008152506000806001548152602001908152602001600020600082015181600001556020820151816001019080519060200190610106929190610117565b506040820151816002015590505050565b828054600181600116156101000203166002900490600052602060002090601f016020900481019282601f1061015857805160ff1916838001178555610186565b82800160010185558215610186579182015b8281111561018557825182559160200191906001019061016a565b5b5090506101939190610197565b5090565b6101b991905b808211156101b557600081600090555060010161019d565b5090565b90565b61026b806101cb6000396000f3fe608060405234801561001057600080fd5b50600436106100415760003560e01c80632d35a8a2146100465780633477ee2e14610064578063ac1fc4d214610119575b600080fd5b61004e610147565b6040518082815260200191505060405180910390f35b6100906004803603602081101561007a57600080fd5b810190808035906020019092919050505061014d565b6040518084815260200180602001838152602001828103825284818151815260200191508051906020019080838360005b838110156100dc5780820151818401526020810190506100c1565b50505050905090810190601f1680156101095780820380516001836020036101000a031916815260200191505b5094505050505060405180910390f35b6101456004803603602081101561012f57600080fd5b810190808035906020019092919050505061020f565b005b60015481565b6000602052806000526040600020600091509050806000015490806001018054600181600116156101000203166002900480601f0160208091040260200160405190810160405280929190818152602001828054600181600116156101000203166002900480156101ff5780601f106101d4576101008083540402835291602001916101ff565b820191906000526020600020905b8154815290600101906020018083116101e257829003601f168201915b5050505050908060020154905083565b6001600080838152602001908152602001600020600201600082825401925050819055505056fea265627a7a72315820aa25e9bfa2438c1094b7c67d826c7edc8fc74c62bfc4a49530ead39788270bda64736f6c63430005100032",
  "source": "pragma solidity >=0.4.22 <0.9.0;\r\n\r\ncontract Election {\r\n    //Model Candidate\r\n    struct Candidate  {\r\n        uint id;\r\n        string name;\r\n        uint voteCount;\r\n    }\r\n\r\n    //Store candidate    \r\n    mapping(uint => Candidate) public candidates;\r\n    //mapping(string => Candidate) public candidates;\r\n    //keep track of candidates\r\n    uint public candidatesCount;\r\n    //string candadite_list[2] = [\"Chicken\",\"Pizza\",\"Turkey\"]\r\n    //Constructor\r\n    constructor () public {\r\n        addCandidate(\"Chicken\");\r\n        addCandidate(\"Pizza\");\r\n    }\r\n    function addCandidate (string memory _name) private {\r\n        candidatesCount += 1;\r\n        candidates[candidatesCount] = Candidate(candidatesCount, _name, 0);\r\n    }\r\n    function Elect (uint choice) public {\r\n        candidates[choice].voteCount += 1;\r\n    }\r\n\r\n}",
  "sourcePath": "C:\\Users\\imani\\Documents\\GitHub\\Training\\blockchain\\tutorial\\contracts\\Election.sol",
  "compiler": {
    "name": "solc",
    "version": "0.5.16+commit.9c3226ce.Emscripten.clang"
  },
  "schemaVersion": "3.4.7",
  "updatedAt": "2022-06-13T17:55:32.240Z",
  "networkType": "ethereum",
  "devdoc": {
    "methods": {}
  },
  "userdoc": {
    "methods": {}
  }
}